S014000043444C3638392D34313143452E737265634B
S3150800800000000220E1910008319100083F91000824
S31508008010459100084B9100085191000800000000A6
S3150800802000000000000000000000000081F60008C3
S315080080305791000800000000C1F8000829F9000857
S3150800804031920008319200083192000831920008F6
S3150800805031920008319200083192000831920008E6
S3150800806031920008319200083192000831920008D6
S3150800807031920008319200083192000831920008C6
S315080080803192000831920008319200080000000081
S315080080900000000000000000000000003192000807
S315080080A03192000865910008319200083192000863
S315080080B0799100083192000831920008319200083F
S315080080C03192000831920008319200083192000876
S315080080D08D91000831920008A19100080000000067
S315080080E03192000831920008319200080000000021
S315080080F000000000000000000000000031920008A7
S315080081000000000031920008319200083192000800
S315080081100000000000000000000000000000000051
S315080081203192000831920008319200083192000815
S315080081303192000800000000000000000000000066
S315080081400000000000000000000000003192000856
S3150800815031920008319200083192000831920008E5
S31508008160319200083192000800000000000000006B
S3150800817000000000000000000000000000000000F1
S315080081800000000031920008000000000000000016
S311080081903192000831920008EE11AA5541
S315080081A010B5054C237833B9044B13B10448AFF323
S315080081B000800123237010BD10000020000000007D
S315080081C07013010808B5034B1BB103490348AFF305
S315080081D0008008BD0000000014000020701301088C
S315080081E053B94AB9002908BF00281CBF4FF0FF3110
S315080081F04FF0FF3000F072B9ADF1080C6DE904CE0E
S3150800820000F006F8DDF804E0DDE9022304B0704763
S315080082102DE9F047089E04468846002B4BD18A4232
S31508008220154667D9B2FA82F24AB1C2F1200701FAB5
S3150800823002F320FA07F7954047EA030894404FEA05
S31508008240154E230CB8FBFEF71FFA85FC0EFB1788A4
S3150800825043EA084307FB0CF1994209D9EB1807F1E1
S31508008260FF3080F01B81994240F21881023F2B446F
S315080082705B1AA4B2B3FBFEF00EFB103344EA0344C8
S3150800828000FB0CFCA44509D92C1900F1FF3380F03A
S315080082900781A44540F2048102382C4440EA07408D
S315080082A0A4EB0C0400271EB1D4400023C6E9004302
S315080082B03946BDE8F0878B4209D9002E00F0EB80DD
S315080082C00027C6E9000138463946BDE8F087B3FA03
S315080082D083F7002F47D18B4202D3824200F2FA80FD
S315080082E0841A61EB030301209846002EE0D0C6E904
S315080082F00048DDE702B9FFDEB2FA82F2002A40F052
S315080083008F80491B4FEA154E1FFA85F80127B1FBE6
S31508008310FEFC230C0EFB1C1143EA014308FB0CF17F
S31508008320994207D9EB180CF1FF3002D2994200F2B4
S31508008330CD808446591AA3B2B1FBFEF00EFB101489
S3150800834043EA044408FB00F8A04507D92C1900F1B4
S31508008350FF3302D2A04500F2B6801846A4EB080403
S3150800836040EA0C409FE7C7F1200CBB4022FA0CFEFE
S315080083704EEA030E01FA07F420FA0CF521FA0CF37B
S315080083804FEA1E482543B3FBF8F92C0C08FB1933B2
S315080083901FFA8EFA44EA034309FB0AF49C4202FADE
S315080083A007F200FA07F10BD91EEB030309F1FF30B8
S315080083B080F087809C4240F28480A9F102097344C8
S315080083C01B1BADB2B3FBF8F008FB103345EA0344B8
S315080083D000FB0AFAA24508D91EEB040400F1FF3394
S315080083E06BD2A24569D90238744440EA0940A0FB19
S315080083F00289A4EB0A044C45C2464B4654D351D0D5
S31508008400002E69D0B1EB0A0564EB030404FA0CFCF0
S31508008410FD40FC404CEA0505C6E90054002747E73D
S31508008420C2F1200320FA03F7954001FA02F021FA77
S3150800843003F34FEA154E3843010CB3FBFEF71FFA58
S3150800844085F80EFB173341EA034107FB08F38B4215
S3150800845004FA02F407D9691807F1FF3C2FD28B42B8
S315080084602DD9023F2944CB1A81B2B3FBFEF00EFB8D
S31508008470103341EA034100FB08F38B4207D9691818
S3150800848000F1FF3C17D28B4215D902382944C91A84
S3150800849040EA07473BE73746304609E70746E7E637
S315080084A01846FBE64145ABD2B8EB020A69EB0E0269
S315080084B001381346A4E76046E9E7184695E7674694
S315080084C0D1E781467CE702382C4447E7ACF1020C39
S315080084D02B442FE7384608E73746E9E6704700BFDA
S315080084E080B400AFBFF34F8F054BDB6803F4E0623F
S315080084F00349044B1343CB60BFF34F8F00BFFDE71F
S3150800850000ED00E00400FA0580B582B000AF084B24
S315080085107B6001F01DFE074B00221A60054B002206
S315080085205A60044B00229A6072B6FFF7D9FF00BF63
S315080085300000FF1F10E000E080B400AF034B044AC0
S315080085409A6000BFBD465DF8047B704700ED00E009
S315080085500080000880B584B000AFFFF7EDFF2E4B12
S315080085601B6B2D4A43F0010313632C4BDB682B4A24
S3150800857043F48013D3600023FB600123FB720023BE
S31508008580FB600CE0254B1B697B607B6803F480630A
S31508008590002B01D00023FB72FB680133FB60FB68EC
S315080085A01F4A9342EEDDFB7A002B01D0FFF7ACFFA2
S315080085B000F040FE00F04EF800F060F900F0B2F866
S315080085C000F032F900F0E4F803F046FD154B0022FE
S315080085D00121154803F094FE0246144B1A60144B09
S315080085E000220121134803F08BFE0246124B1A6043
S315080085F0124A0021124803F099FD0246114B1A60EF
S31508008600114A0021114803F091FD0246104B1A60E9
S3150800861003F056FDFEE700BF0038024000000240A6
S315080086209F8601007C140108E18D00084C4B002050
S315080086308C140108F58D0008444A002034140108FA
S31508008640C98A00084049002058140108FD8A000814
S31508008650384A002080B594B000AF07F120033022D5
S315080086600021184608F07BFE07F10C0300221A6069
S315080086705A609A60DA601A610023BB60274B1B6C4C
S31508008680264A43F080531364244B1B6C03F0805333
S31508008690BB60BB6800237B60214B1B68204A43F400
S315080086A0404313601E4B1B6803F440437B607B68A2
S315080086B001233B624FF480337B620223BB634FF492
S315080086C08003FB6308233B6454237B640223BB6457
S315080086D00423FB6407F12003184601F0A7F80346B4
S315080086E0002B01D000F0D6FB0F23FB6002233B6171
S315080086F000237B614FF48053BB610023FB6107F1C4
S315080087000C030221184601F001FB0346002B01D099
S3150800871000F0C0FB00BF5037BD4680BD00380240A0
S315080087200070004080B500AF174B184A1A60164B08
S315080087304FF482725A60144B00229A60124B002240
S31508008740DA60114B02221A610F4B01225A610E4B55
S315080087504FF400729A610C4B2022DA610A4B002210
S315080087601A62094B00225A62074B00229A62064B8C
S315080087700A22DA62044801F0B9FD0346002B01D04B
S3150800878000F088FB00BF80BD444900200038004047
S3150800879080B586B000AF07F1080300221A605A6058
S315080087A09A60DA603B4600221A605A601D4B4FF009
S315080087B080421A601B4B54225A601A4B00229A6058
S315080087C0184B42F21072DA60164B00221A61154BEA
S315080087D080229A61134802F08BF90346002B01D0D8
S315080087E000F058FB4FF48053BB6007F108031946A5
S315080087F00C4802F0FFFA0346002B01D000F04AFBB2
S3150800880000233B6000237B603B461946054802F07F
S31508008810EBFC0346002B01D000F03CFB00BF1837E9
S31508008820BD4680BD504B002080B500AF114B124AA3
S315080088301A60104B4FF4E1225A600E4B00229A60E0
S315080088400C4B0022DA600B4B00221A61094B0C22F2
S315080088505A61084B00229A61064B4FF40042DA61CE
S31508008860044802F043FD0346002B01D000F012FB3A
S3150800887000BF80BDB04B00200044004080B588B0E2
S3150800888000AF07F10C0300221A605A609A60DA609A
S315080088901A610023BB60334B1B6B324A43F08003DB
S315080088A01363304B1B6B03F08003BB60BB6800236C
S315080088B07B602C4B1B6B2B4A43F001031363294B3C
S315080088C01B6B03F001037B607B6800233B60254B31
S315080088D01B6B244A43F002031363224B1B6B03F002
S315080088E002033B603B68002242211F4800F06AFFF2
S315080088F001224FF480511D4800F064FF00224FF416
S3150800890040711A4800F05EFF4223FB6001233B6179
S3150800891000237B610023BB6107F10C03194612484B
S3150800892000F0CEFD4FF49853FB6001233B61002312
S315080089307B610023BB6107F10C0319460B4800F065
S31508008940BFFD4FF48063FB6000233B6101237B611D
S3150800895007F10C031946044800F0B2FD00BF2037A2
S31508008960BD4680BD003802400000024000040240B7
S3150800897080B582B000AF7860484B00221A70012299
S315080089804FF48051464800F01DFF464B1B68002BEC
S3150800899037DD444B1B68023B424A1360414B1B6858
S315080089A0002B14D1404B01221A70404B1B68FF2B39
S315080089B005DC3E4B1B6801333C4A136007E03B4B22
S315080089C000221A604FF40071354800F014FF0022A7
S315080089D04FF48051324800F0F5FE324B1B68C3F164
S315080089E01803334A99182F4B1B68C3F11803314AE9
S315080089F01A440223304801F0DDFC284B01221A7084
S31508008A0047E0294B1B78DBB2002B42D0294B5A781A
S31508008A102A4B1A70274BDA78284B5A70254B5A7905
S31508008A20264B9A70234BDA79244BDA70214B5A7A03
S31508008A30224B1A711F4BDA7A204B5A711D4B5A7BFF
S31508008A401E4B9A711B4BDA7B1C4BDA71194B5A7CFD
S31508008A501A4B1A72174BDA7C184B5A72154B5A7DF9
S31508008A60164B9A72134BDA7D144BDA72134B552256
S31508008A701A73124BAA225A7301220221104800F0D7
S31508008A80A1FE0E220D490F4802F07DFC064B00227E
S31508008A901A7000BF0837BD4680BD00BF2C000020F5
S31508008AA000040240484A00202D0000203000002023
S31508008AB0904B0020F04B0020444900209C490020A0
S31508008AC000000240B04B002080B582B000AF78604D
S31508008AD001224FF48061074800F074FE064B1B68BC
S31508008AE04FF47A71184603F08FFC012003F0C4FB9B
S31508008AF0FBE700BF00000240444A002080B584B06E
S31508008B0000AF78600023FB730123BB73FB7B062B46
S31508008B1000F24B8101A252F823F000BF398B0008FE
S31508008B20938B0008A98C0008BD8C0008FF8C0008F0
S31508008B30358D0008758D00084FF4807200219E4817
S31508008B4008F00DFC9D4B03221A709C4B9C4A5A60F8
S31508008B509A4B01221A72994B4FF47A72A3F8622043
S31508008B60964B984ADA60954B02221A82934B00225A
S31508008B70DA66924B904A9A65904B802283F8702069
S31508008B808E4807F033F98D4807F0BAF90123FB73CD
S31508008B900EE18A4BD3F888304FF0FF31184603F0C0
S31508008BA011FD854B5B88002B02D00323FB7374E011
S31508008BB0814B9B88002B02D00523FB736DE07E4B0F
S31508008BC09B8A692B4ED17C4B00229A827E4BA2222D
S31508008BD01A707D4B00225A707B4BA3229A707A4BEF
S31508008BE00022DA70784BA4221A71774B00225A7148
S31508008BF0754BA5229A71744B0022DA71724BA62224
S31508008C001A72714B00225A726F4BA7229A726E4BD8
S31508008C100022DA726C4BA8221A736B4B00225A7325
S31508008C20694BA9229A73684B0022DA73664BAA220B
S31508008C301A74654B00225A74634BAB229A74624BC2
S31508008C400022DA74604BAC221A755F4B00225A7503
S31508008C505D4BAD229A755C4B0022DA755B4801F0D4
S31508008C6072FF1AE0544B9B8A962B06D1524B002270
S31508008C709A82564801F08BFF0FE04F4BDB8A002B98
S31508008C800BD04D4BDA8A514B1B68DA624F4B1B6887
S31508008C9000225A62484B0022DA82484BD3F88830C1
S31508008CA0184603F0F5FC83E0494B1B7883F0010373
S31508008CB0DBB2002B7BD0BB7BFB7378E03E4B5B883B
S31508008CC0DBB263F07F03DAB23F4B1A703E4B0022E9
S31508008CD05A7000224FF480513E4800F073FD02237B
S31508008CE03D4A39493D4801F065FB03467B73384BDD
S31508008CF001221A700223FB730423BB7358E02F4B1F
S31508008D00D3F888304FF0FF31184603F05BFC2A4B46
S31508008D1000225A80304B5B789AB2274BDA800123BF
S31508008D20BB73BB7BFB73254BD3F88830184603F01F
S31508008D30AFFC3DE0204B9B88DAB2234B1A701E4BE2
S31508008D40DB88DAB2204B5A7000224FF48051214852
S31508008D5000F038FD0223204A1B49204801F02AFB6F
S31508008D6003467B731A4B01221A700223FB730623F0
S31508008D70BB731DE0114BD3F888304FF0FF3118460E
S31508008D8003F020FC0C4B00229A80134B5B789AB2B6
S31508008D90094BDA800123BB73BB7BFB73074BD3F804
S31508008DA08830184603F074FC02E000BF00E000BFFC
S31508008DB0012003F061FAA9E64C4A0020AC490020DC
S31508008DC0B04B002000000240904B0020504B002082
S31508008DD02C00002000040240F04B002044490020EB
S31508008DE080B483B000AF786000BF0C37BD465DF82D
S31508008DF0047B704780B582B000AF78604FF480710D
S31508008E00034800F0F8FC00BF0837BD4680BD00BF28
S31508008E100004024080B582B000AF78607B681B68AA
S31508008E20154A934202D100F027FA20E07B681B68B6
S31508008E30B3F1804F1BD1114B18221A6000224FF450
S31508008E4080510F4800F0BEFC0C4B1B68C3F1180399
S31508008E500C4A9918094B1B68C3F118030A4A1A44A5
S31508008E6002230A4801F0A6FA094B01221A7000BF2C
S31508008E700837BD4680BD00BF00000140484A0020B3
S31508008E8000040240904B0020F04B0020444900208B
S31508008E902C00002080B400AF00BFBD465DF8047BFF
S31508008EA07047000080B483B000AF00237B60104B8E
S31508008EB05B6C0F4A43F4804353640D4B5B6C03F4BD
S31508008EC080437B607B6800233B60094B1B6C084A28
S31508008ED043F080531364064B1B6C03F080533B60CE
S31508008EE03B6800BF0C37BD465DF8047B704700BF82
S31508008EF00038024080B58AB000AF786007F11403E5
S31508008F0000221A605A609A60DA601A617B681B68E8
S31508008F101D4A934234D100233B611C4B1B6C1B4AF0
S31508008F2043F480431364194B1B6C03F480433B6181
S31508008F303B690023FB60154B1B6B144A43F0020385
S31508008F401363124B1B6B03F00203FB60FB684FF4C1
S31508008F5044437B610223BB610023FB6103233B621D
S31508008F6005237B6207F114031946094800F0A8FA9D
S31508008F7000220021242000F057FA242000F070FA7D
S31508008F8000BF2837BD4680BD003800400038024083
S31508008F900004024080B584B000AF78607B681B6827
S31508008FA0B3F1804F15D10023FB600C4B1B6C0B4AA9
S31508008FB043F001031364094B1B6C03F00103FB60C8
S31508008FC0FB68002201211C2000F02EFA1C2000F06C
S31508008FD047FA00BF1037BD4680BD00BF00380240C3
S31508008FE080B58AB000AF786007F1140300221A60D2
S31508008FF05A609A60DA601A617B681B681D4A934258
S3150800900033D100233B611C4B1B6C1B4A43F40033D2
S315080090101364194B1B6C03F400333B613B69002353
S31508009020FB60154B1B6B144A43F001031363124B89
S315080090301B6B03F00103FB60FB680C237B610223B7
S31508009040BB610023FB6103233B6207237B6207F1B5
S3150800905014031946094800F033FA00220521262090
S3150800906000F0E2F9262000F0FBF900BF2837BD46DC
S3150800907080BD00BF004400400038024000000240A6
S3150800908080B58CB000AF78600023FB620023BB621A
S3150800909000227968192000F0C7F9192000F0E0F9D4
S315080090A00023FB601E4B5B6C1D4A43F001035364AF
S315080090B01B4B5B6C03F00103FB60FB6807F11002B6
S315080090C007F114031146184601F010F800F0FAFFEC
S315080090D0F862FB6A134AA2FB03239B0C013BBB62A3
S315080090E0114B124A1A60104B40F2E732DA600E4A08
S315080090F0BB6A53600C4B00221A610B4B00229A6024
S31508009100094801F0F5FC0346002B04D1064801F096
S315080091101AFD034600E0012318463037BD4680BDD8
S315080091200038024083DE1B43104C0020000001403B
S3150800913080B400AF00BFBD465DF8047B704780B4BD
S3150800914000AFFEE780B400AFFEE780B400AFFEE7ED
S3150800915080B400AFFEE780B400AF00BFBD465DF83F
S31508009160047B704780B500AF024801F03BFD00BFA5
S3150800917080BD00BF104C002080B500AF024801F04A
S3150800918031FD00BF80BD00BF504B002080B500AF49
S31508009190024801F0A3F900BF80BD00BF4449002082
S315080091A080B500AF024802F089F900BF80BD00BF54
S315080091B0B04B002080B400AF084BD3F88830074A7C
S315080091C043F47003C2F88830044B4FF000629A608B
S315080091D000BFBD465DF8047B704700BF00ED00E0A8
S315080091E0DFF834D0002103E00C4B5B5843500431C0
S315080091F00B480C4B42189A42F6D30B4A02E000235E
S3150800920042F8043B094B9A42F9D3FFF7D3FF08F01B
S3150800921077F8FFF79FF970470000022054150108F8
S31508009220000000201000002010000020944C0020B0
S31508009230FEE7000080B500AF0E4B1B680D4A43F4ED
S31508009240007313600B4B1B680A4A43F48063136070
S31508009250084B1B68074A43F480731360032000F029
S31508009260D8F80020FFF70CFFFFF71CFE002318466E
S3150800927080BD00BF003C024080B400AF064B1B789F
S315080092801A46064B1B681344044A136000BFBD46C2
S315080092905DF8047B704700BF08000020504C002092
S315080092A080B400AF034B1B681846BD465DF8047BC7
S315080092B0704700BF504C002080B485B000AF78607E
S315080092C07B6803F00703FB600C4BDB68BB60BA687E
S315080092D04FF6FF031340BB60FB681A02BB681343D3
S315080092E043F0BF6343F40033BB60044ABB68D360F2
S315080092F000BF1437BD465DF8047B704700ED00E0FB
S3150800930080B400AF044BDB681B0A03F0070318465A
S31508009310BD465DF8047B704700ED00E080B483B07D
S3150800932000AF0346FB7197F90730002B0BDBFB797F
S3150800933003F01F02074997F907305B09012000FA75
S3150800934002F241F8232000BF0C37BD465DF8047BC6
S31508009350704700BF00E100E080B483B000AF034669
S315080093603960FB7197F90730002B0ADB3B68DAB2E4
S315080093700C4997F907301201D2B20B4483F800233F
S315080093800AE03B68DAB20849FB7903F00F03043BAD
S315080093901201D2B20B441A7600BF0C37BD465DF8EF
S315080093A0047B704700E100E000ED00E080B489B07E
S315080093B000AFF860B9607A60FB6803F00703FB61E9
S315080093C0FB69C3F10703042B28BF0423BB61FB69B0
S315080093D00433062B02D9FB69033B00E000237B61BB
S315080093E04FF0FF32BB6902FA03F3DA43BB681A404F
S315080093F07B699A404FF0FF317B6901FA03F3D94341
S315080094007B680B40134318462437BD465DF8047B3A
S31508009410704780B582B000AF78607868FFF74CFF78
S3150800942000BF0837BD4680BD80B586B000AF03468D
S31508009430B9607A60FB7300237B61FFF761FF78618F
S315080094407A68B9687869FFF7B1FF024697F90F306D
S3150800945011461846FFF780FF00BF1837BD4680BD86
S3150800946080B582B000AF0346FB7197F907301846FE
S31508009470FFF754FF00BF0837BD4680BD80B483B0F0
S3150800948000AF78607B6893F83530DBB2022B04D0E6
S315080094907B6880225A6501230CE07B68052283F8E5
S315080094A035207B681B681A687B681B6822F00102F6
S315080094B01A60002318460C37BD465DF8047B7047D2
S315080094C080B489B000AF7860396000237B610023DF
S315080094D03B610023BB610023FB6159E10122FB6963
S315080094E002FA03F37B613B681B687A6913403B61A8
S315080094F03A697B699A4240F048813B685B68012B70
S315080095000BD03B685B68022B07D03B685B68112B66
S3150800951003D03B685B68122B30D17B689B68BB61C4
S31508009520FB695B00032202FA03F3DB43BA691340C3
S31508009530BB613B68DA68FB695B0002FA03F3BA6948
S315080095401343BB617B68BA699A607B685B68BB61D9
S315080095500122FB6902FA03F3DB43BA691340BB61D4
S315080095603B685B681B0903F00102FB6902FA03F317
S31508009570BA691343BB617B68BA695A607B68DB6862
S31508009580BB61FB695B00032202FA03F3DB43BA699A
S315080095901340BB613B689A68FB695B0002FA03F3F8
S315080095A0BA691343BB617B68BA69DA603B685B6872
S315080095B0022B03D03B685B68122B23D1FB69DA08C0
S315080095C07B68083253F82230BB61FB6903F0070356
S315080095D09B000F2202FA03F3DB43BA691340BB610F
S315080095E03B681A69FB6903F007039B0002FA03F359
S315080095F0BA691343BB61FB69DA087B680832B96943
S3150800960043F822107B681B68BB61FB695B00032279
S3150800961002FA03F3DB43BA691340BB613B685B6834
S3150800962003F00302FB695B0002FA03F3BA6913430A
S31508009630BB617B68BA691A603B685B6803F0805354
S31508009640002B00F0A2800023FB60564B5B6C554A4A
S3150800965043F480435364534B5B6C03F48043FB60D1
S31508009660FB68514AFB699B08023352F82330BB61F9
S31508009670FB6903F003039B000F2202FA03F3DB43A3
S31508009680BA691340BB617B68484A934219D07B6824
S31508009690474A934213D07B68464A93420DD07B686B
S315080096A0454A934207D07B68444A934201D1042332
S315080096B008E0072306E0032304E0022302E001236F
S315080096C000E00023FA6902F0030292009340BA69A7
S315080096D01343BB613449FB699B080233BA6941F8F5
S315080096E02320374B1B68BB613B69DB43BA691340D0
S315080096F0BB613B685B6803F48033002B03D0BA690F
S315080097003B691343BB612E4ABB6913602C4B5B68EC
S31508009710BB613B69DB43BA691340BB613B685B6865
S3150800972003F40033002B03D0BA693B691343BB61CA
S31508009730234ABB695360224B9B68BB613B69DB4389
S31508009740BA691340BB613B685B6803F48013002B5E
S3150800975003D0BA693B691343BB61194ABB69936075
S31508009760174BDB68BB613B69DB43BA691340BB61D6
S315080097703B685B6803F40013002B03D0BA693B69A6
S315080097801343BB610E4ABB69D360FB690133FB61B6
S31508009790FB690F2B7FF6A2AE00BF2437BD465DF8E6
S315080097A0047B704700380240003801400000024040
S315080097B00004024000080240000C0240001002406B
S315080097C0003C014080B483B000AF78600B467B80D4
S315080097D013467B707B78002B03D07A887B689A6166
S315080097E003E07B881A047B689A6100BF0C37BD4684
S315080097F05DF8047B704780B483B000AF78600B4691
S315080098007B807B685A697B881A407B889A4204D198
S315080098107B881A047B689A6102E07A887B689A6179
S3150800982000BF0C37BD465DF8047B704780B586B02F
S3150800983000AF78607B68002B01D101235BE27B686F
S315080098401B6803F00103002B75D0A34B9B6803F03C
S315080098500C03042B0CD0A04B9B6803F00C03082BBD
S3150800986012D19D4B5B6803F48003B3F5800F0BD1CF
S31508009870994B1B6803F40033002B5BD07B685B684D
S31508009880002B57D1012336E27B685B68B3F5803F2E
S3150800989006D1914B1B68904A43F4803313601DE050
S315080098A07B685B68B3F5A02F0CD18B4B1B688A4A83
S315080098B043F480231360884B1B68874A43F480333C
S315080098C013600BE0844B1B68834A23F480331360D0
S315080098D0814B1B68804A23F4802313607B685B688E
S315080098E0002B13D0FFF7DCFC386108E0FFF7D8FC43
S315080098F002463B69D31A642B01D90323FBE1764B55
S315080099001B6803F40033002BF0D014E0FFF7C8FC03
S31508009910386108E0FFF7C4FC02463B69D31A642B9A
S3150800992001D90323E7E16C4B1B6803F40033002BD2
S31508009930F0D100E000BF7B681B6803F00203002B30
S3150800994063D0654B9B6803F00C03002B0BD0624B6E
S315080099509B6803F00C03082B1CD15F4B5B6803F470
S315080099608003002B16D15C4B1B6803F00203002B07
S3150800997005D07B68DB68012B01D00123BBE1564B80
S315080099801B6823F0F8027B681B69DB005249134306
S315080099900B603AE07B68DB68002B20D04F4B012236
S315080099A01A60FFF77DFC386108E0FFF779FC02468C
S315080099B03B69D31A022B01D903239CE1464B1B684A
S315080099C003F00203002BF0D0434B1B6823F0F80288
S315080099D07B681B69DB00404913430B6015E03F4B6E
S315080099E000221A60FFF75CFC386108E0FFF758FCB4
S315080099F002463B69D31A022B01D903237BE1364B76
S31508009A001B6803F00203002BF0D17B681B6803F088
S31508009A100803002B30D07B685B69002B16D0304BCF
S31508009A2001221A60FFF73CFC386108E0FFF738FCB2
S31508009A3002463B69D31A022B01D903235BE1264B65
S31508009A405B6F03F00203002BF0D015E0244B0022D5
S31508009A501A60FFF725FC386108E0FFF721FC02468B
S31508009A603B69D31A022B01D9032344E11A4B5B6FD6
S31508009A7003F00203002BF0D17B681B6803F0040394
S31508009A80002B00F0A0800023FB75134B1B6C03F022
S31508009A908053002B0FD10023BB600F4B1B6C0E4A63
S31508009AA043F0805313640C4B1B6C03F08053BB606C
S31508009AB0BB680123FB750B4B1B6803F48073002BF3
S31508009AC021D1084B1B68074A43F480731360FFF7DC
S31508009AD0E7FB386111E000BF00380240000047424A
S31508009AE0800E474200700040FFF7DAFB02463B69EA
S31508009AF0D31A022B01D90323FDE0814B1B6803F41B
S31508009B008073002BF0D07B689B68012B06D17D4BB8
S31508009B101B6F7C4A43F0010313671CE07B689B6854
S31508009B20052B0CD1774B1B6F764A43F0040313675A
S31508009B30744B1B6F734A43F0010313670BE0714BB9
S31508009B401B6F704A23F0010313676E4B1B6F6D4A38
S31508009B5023F0040313677B689B68002B15D0FFF777
S31508009B609FFB38610AE0FFF79BFB02463B69D31A65
S31508009B7041F28832934201D90323BCE0614B1B6F43
S31508009B8003F00203002BEED014E0FFF789FB3861DF
S31508009B900AE0FFF785FB02463B69D31A41F2883291
S31508009BA0934201D90323A6E0564B1B6F03F0020329
S31508009BB0002BEED1FB7D012B05D1524B1B6C514A74
S31508009BC023F0805313647B689B69002B00F0928016
S31508009BD04C4B9B6803F00C03082B5CD07B689B6995
S31508009BE0022B41D1484B00221A60FFF759FB386116
S31508009BF008E0FFF755FB02463B69D31A022B01D949
S31508009C00032378E03F4B1B6803F00073002BF0D169
S31508009C107B68DA697B681B6A1A437B685B6A9B0107
S31508009C201A437B689B6A5B08013B1B041A437B68E3
S31508009C30DB6A1B06334913434B60334B01221A6018
S31508009C40FFF72EFB386108E0FFF72AFB02463B695F
S31508009C50D31A022B01D903234DE02A4B1B6803F0C4
S31508009C600073002BF0D045E0274B00221A60FFF75F
S31508009C7017FB386108E0FFF713FB02463B69D31A66
S31508009C80022B01D9032336E01E4B1B6803F0007331
S31508009C90002BF0D12EE07B689B69012B01D10123B3
S31508009CA029E0184B5B68FB60FB6803F480027B685D
S31508009CB0DB699A421CD1FB6803F03F027B681B6A8A
S31508009CC09A4215D1FA6847F6C07313407A68526A01
S31508009CD093420DD1FB6803F440327B689B6A9A4233
S31508009CE006D1FB6803F070627B68DB6A9A4201D092
S31508009CF0012300E0002318461837BD4680BD00BF83
S31508009D0000700040003802406000474280B584B0C9
S31508009D1000AF786039607B68002B01D10123CCE065
S31508009D20684B1B6803F00F033A689A420CD9654BD7
S31508009D303A68D2B21A70634B1B6803F00F033A688D
S31508009D409A4201D00123B8E07B681B6803F002033E
S31508009D50002B20D07B681B6803F00403002B05D07A
S31508009D60594B9B68584A43F4E05393607B681B68D9
S31508009D7003F00803002B05D0534B9B68524A43F463
S31508009D8060439360504B9B6823F0F0027B689B68A6
S31508009D904D4913438B607B681B6803F00103002B56
S31508009DA044D07B685B68012B07D1474B1B6803F4DB
S31508009DB00033002B19D101237FE07B685B68022BF7
S31508009DC003D07B685B68032B07D13F4B1B6803F006
S31508009DD00073002B09D101236FE03B4B1B6803F08E
S31508009DE00203002B01D1012367E0374B9B6823F060
S31508009DF003027B685B68344913438B60FFF750FAAC
S31508009E00F8600AE0FFF74CFA0246FB68D31A41F2FB
S31508009E108832934201D903234FE02B4B9B6803F00A
S31508009E200C027B685B689B009A42EBD1254B1B684A
S31508009E3003F00F033A689A420CD2224B3A68D2B220
S31508009E401A70204B1B6803F00F033A689A4201D038
S31508009E50012332E07B681B6803F00403002B08D05B
S31508009E60194B9B6823F4E0527B68DB681649134359
S31508009E708B607B681B6803F00803002B09D0124B24
S31508009E809B6823F460427B681B69DB000E49134319
S31508009E908B6000F021F801460B4B9B681B0903F009
S31508009EA00F030A4AD35C21FA03F3094A1360094BE4
S31508009EB01B681846FFF7E4F8002318461037BD4616
S31508009EC080BD00BF003C0240003802409C140108D7
S31508009ED00000002004000020F0B585B000AF002384
S31508009EE07B600023FB6000233B600023BB60634B61
S31508009EF09B6803F00C03042B07D0082B08D0002B13
S31508009F0040F0B4805E4BBB60B3E05D4BBB60B0E035
S31508009F105A4B5B6803F03F037B60584B5B6803F45E
S31508009F208003002B4AD0554B5B689B094FF0000411
S31508009F3040F2FF114FF0000203EA010504EA0206A7
S31508009F40294632464FF000034FF00004540144EA14
S31508009F50D1644B0119462246491B62EB06024FF0B3
S31508009F6000034FF00004940144EA91648B015B1AE4
S31508009F7064EB02044FF000014FF00002E20042EAEF
S31508009F805372D9000B4614465B1944EB06044FF08E
S31508009F9000014FF00002A20242EA935299020B46D0
S31508009FA01446184621467B684FF000041A46234695
S31508009FB0FEF716F903460C46FB6049E02F4B5B6833
S31508009FC09B094FF0000440F2FF114FF0000203EA2C
S31508009FD0010504EA0206294632464FF000034FF00F
S31508009FE00004540144EAD1644B0119462246491B30
S31508009FF062EB06024FF000034FF00004940144EAB6
S3150800A00091648B015B1A64EB02044FF000014FF078
S3150800A0100002E20042EA5372D9000B4614465B1965
S3150800A02044EB06044FF000014FF00002A20242EA98
S3150800A030935299020B461446184621467B684FF000
S3150800A04000041A462346FEF7CBF803460C46FB6087
S3150800A0500A4B5B681B0C03F0030301335B003B6090
S3150800A060FA683B68B2FBF3F3BB6002E0044BBB60E3
S3150800A07000BFBB6818461437BD46F0BD003802401D
S3150800A0800024F40080B400AF034B1B681846BD4695
S3150800A0905DF8047B704700BF0000002080B500AF64
S3150800A0A0FFF7F0FF0146054B9B689B0A03F0070381
S3150800A0B0034AD35C21FA03F3184680BD00380240F0
S3150800A0C0AC14010880B500AFFFF7DCFF0146054B6D
S3150800A0D09B685B0B03F00703034AD35C21FA03F37F
S3150800A0E0184680BD00380240AC14010880B483B01D
S3150800A0F000AF786039607B680F221A60124B9B6844
S3150800A10003F003027B685A600F4B9B6803F0F0026A
S3150800A1107B689A600C4B9B6803F4E0527B68DA60B4
S3150800A120094B9B68DB0803F4E0527B681A61074B0E
S3150800A1301B6803F00F023B681A6000BF0C37BD4668
S3150800A1405DF8047B704700BF00380240003C0240BF
S3150800A15080B582B000AFFFF7A3F878605D4B1B6847
S3150800A1605C4A43F00103136008E0FFF799F80246DA
S3150800A1707B68D31A022B01D90323A7E0554B1B682A
S3150800A18003F00203002BF0D0524B1B68514A43F0F0
S3150800A19080031360FFF784F878604E4B00229A60BC
S3150800A1A00AE0FFF77DF802467B68D31A41F2883247
S3150800A1B0934201D9032389E0464B9B6803F00C03BD
S3150800A1C0002BEED1FFF76CF87860424B1B68414ACA
S3150800A1D023F45023136008E0FFF762F802467B6811
S3150800A1E0D31A642B01D9032370E03A4B1B6803F496
S3150800A1F00033002BF0D1FFF753F87860354B1B6816
S3150800A200344A23F08073136008E0FFF749F80246E2
S3150800A2107B68D31A022B01D9032357E02D4B1B6801
S3150800A22003F00073002BF0D1FFF73AF87860294B5A
S3150800A2301B68284A23F08063136008E0FFF730F8AC
S3150800A24002467B68D31A022B01D903233EE0214B31
S3150800A2501B6803F00063002BF0D11E4B1E4A5A60A0
S3150800A2601C4B1E4AC3F884201A4BDB68194A23F490
S3150800A270F853D360174BDB68164A23F40053D360B0
S3150800A280144BDB68134A43F41F03D360114BDB6896
S3150800A290104A43F40013D3600E4B5B6F0D4A23F04C
S3150800A2A0010353670B4B5B6F0A4A43F0807353678E
S3150800A2B00B4B0C4A1A600C4B1B681846FEF7E0FE5F
S3150800A2C00346002B01D0012300E000231846083777
S3150800A2D0BD4680BD00380240103000041030002012
S3150800A2E0000000200024F4000400002080B582B09D
S3150800A2F000AF78607B68002B01D1012356E07B68AC
S3150800A30000229A627B6893F85130DBB2002B06D1A3
S3150800A3107B68002283F850207868FEF7EBFD7B689F
S3150800A320022283F851207B681B681A687B681B68C1
S3150800A33022F040021A607B685A687B689B681A4359
S3150800A3407B68DB681A437B681B691A437B685B6911
S3150800A3501A437B689B6903F400731A437B68DB69BD
S3150800A3601A437B681B6A42EA03017B689A6A7B6820
S3150800A3701B680A431A607B689B691B0C03F004017F
S3150800A3807B685A6A7B681B680A435A607B681B6845
S3150800A390DA697B681B6822F40062DA617B6800224E
S3150800A3A05A657B68012283F851200023184608372E
S3150800A3B0BD4680BD80B487B000AFF860B9607A60EA
S3150800A3C07B800023FB75FB6893F85030012B01D185
S3150800A3D0022375E0FB68012283F85020FB6893F896
S3150800A3E05130BB75FB685B683B61BB7D012B0DD0AB
S3150800A3F03B69B3F5827F06D1FB689B68002B02D1C7
S3150800A400BB7D042B02D00223FB7554E0BB68002BEE
S3150800A41005D07B68002B02D07B88002B02D1012354
S3150800A420FB7548E0FB6893F85130DBB2042B03D088
S3150800A430FB68052283F85120FB6800225A65FB68F1
S3150800A440BA681A63FB687A889A86FB687A88DA8615
S3150800A450FB687A689A63FB687A889A87FB687A88C1
S3150800A460DA87FB68DB68002B06D0FB68174A1A6494
S3150800A470FB68174A5A6405E0FB68164A1A64FB68C3
S3150800A480154A5A64FB681B685A68FB681B6842F0E1
S3150800A490E0025A60FB681B681B6803F04003402B08
S3150800A4A008D0FB681B681A68FB681B6842F0400204
S3150800A4B01A6000E000BFFB68002283F85020FB7D8D
S3150800A4C018461C37BD465DF8047B7047F1A700089F
S3150800A4D051A800082DA7000891A7000880B588B0E4
S3150800A4E000AF78607B681B685B68FB617B681B68EC
S3150800A4F09B68BB61BB699B0903F00103002B0FD165
S3150800A500BB6903F00103002B0AD0FB699B0903F022
S3150800A5100103002B04D07B681B6C78689847D8E049
S3150800A520BB695B0803F00103002B0AD0FB69DB0952
S3150800A53003F00103002B04D07B685B6C78689847AE
S3150800A540C7E0BB695B0903F00103002B0CD1BB69AB
S3150800A5509B0903F00103002B06D1BB691B0A03F014
S3150800A5600103002B00F0B580FB695B0903F00103CA
S3150800A570002B00F0AE80BB699B0903F00103002B9A
S3150800A58023D07B6893F85130DBB2032B11D07B685C
S3150800A5905B6D43F004027B685A6500237B617B6828
S3150800A5A01B68DB687B617B681B689B687B617B69D2
S3150800A5B00BE000233B617B681B68DB683B617B68BB
S3150800A5C01B689B683B613B6983E0BB695B0903F0D9
S3150800A5D00103002B14D07B685B6D43F001027B6896
S3150800A5E05A650023FB607B681B689B68FB607B6879
S3150800A5F01B681A687B681B6822F040021A60FB68B1
S3150800A600BB691B0A03F00103002B0CD07B685B6D4A
S3150800A61043F008027B685A650023BB607B681B68A9
S3150800A6209B68BB60BB687B685B6D002B50D07B6802
S3150800A6301B685A687B681B6822F0E0025A607B68D0
S3150800A640012283F85120FB6903F00203002B04D191
S3150800A650FB6903F00103002B34D07B681B685A683A
S3150800A6607B681B6822F003025A607B68DB6C002B50
S3150800A67011D07B68DB6C184A1A657B68DB6C184658
S3150800A680FEF7FCFE0346002B05D07B685B6D43F0A6
S3150800A69040027B685A657B689B6C002B16D07B68EA
S3150800A6A09B6C0D4A1A657B689B6C1846FEF7E6FE9E
S3150800A6B00346002B0AD07B685B6D43F040027B683B
S3150800A6C05A6503E0786800F013F800E000BF00BFA1
S3150800A6D000BF2037BD4680BD05A7000880B483B0FB
S3150800A6E000AF786000BF0C37BD465DF8047B704745
S3150800A6F080B483B000AF786000BF0C37BD465DF804
S3150800A700047B704780B584B000AF78607B689B6B2C
S3150800A710FB60FB680022DA87FB680022DA86F868A5
S3150800A720FFF7E6FF00BF1037BD4680BD80B582B093
S3150800A73000AF78607B681B6803F10C027B689B6B33
S3150800A7401278D2B21A707B689B6B5A1C7B689A6324
S3150800A7507B68DB8F9BB2013B9AB27B68DA877B68A2
S3150800A760DB8F9BB2002B0FD17B681B685A687B680E
S3150800A7701B6822F060025A607B68DB8E9BB2002B56
S3150800A78002D1786800F040F900BF0837BD4680BDA1
S3150800A79080B582B000AF78607B681A6B7B681B68EF
S3150800A7A00C3312781A707B681B6B5A1C7B681A6309
S3150800A7B07B68DB8E9BB2013B9AB27B68DA867B6844
S3150800A7C0DB8E9BB2002B0FD17B681B685A687B68AF
S3150800A7D01B6822F080025A607B68DB8F9BB2002BD5
S3150800A7E002D1786800F010F900BF0837BD4680BD71
S3150800A7F080B582B000AF78607B681B68DA687B68D2
S3150800A8009B6B92B21A807B689B6B9A1C7B689A63D7
S3150800A8107B68DB8F9BB2013B9AB27B68DA877B68E1
S3150800A820DB8F9BB2002B0FD17B681B685A687B684D
S3150800A8301B6822F040025A607B68DB8E9BB2002BB5
S3150800A84002D1786800F0E0F800BF0837BD4680BD41
S3150800A85080B582B000AF78607B681B6B1A887B680E
S3150800A8601B68DA607B681B6B9A1C7B681A637B68BB
S3150800A870DB8E9BB2013B9AB27B68DA867B68DB8EFD
S3150800A8809BB2002B0FD17B681B685A687B681B68D4
S3150800A89022F080025A607B68DB8F9BB2002B02D1C4
S3150800A8A0786800F0B1F800BF0837BD4680BD80B5AE
S3150800A8B084B000AFF860B9603B601346FB714CE0AA
S3150800A8C03B68B3F1FF3F48D0FEF7EAFC0246BB6996
S3150800A8D0D31A3A689A4202D93B68002B3DD1FB68E5
S3150800A8E01B685A68FB681B6822F0E0025A60FB681E
S3150800A8F05B68B3F5827F11D1FB689B68B3F5004F9F
S3150800A90004D0FB689B68B3F5806F07D1FB681B68AA
S3150800A9101A68FB681B6822F040021A60FB689B6A8B
S3150800A920B3F5005F0FD1FB681B681A68FB681B68E4
S3150800A93022F400521A60FB681B681A68FB681B68D9
S3150800A94042F400521A60FB68012283F85120FB6822
S3150800A950002283F8502003230FE0FB681B689A68DF
S3150800A960BB681340BA689A420CBF01230023DBB2C6
S3150800A9701A46FB799A42A3D1002318461037BD46DA
S3150800A98080BD000080B588B002AFF860B9607A6013
S3150800A9901B4B1B681B4AA2FB03235B0D4FF47A7201
S3150800A9A002FB03F37B61FB685B68B3F5827F12D118
S3150800A9B07B680093BB6800228021F868FFF777FF61
S3150800A9C00346002B16D0FB685B6D43F02002FB683C
S3150800A9D05A6503230FE07B69002B0AD07B69013B8C
S3150800A9E07B61FB681B689B6803F08003802BF2D0B1
S3150800A9F000E000BF002318461837BD4680BD00BFDB
S3150800AA0000000020819F5E1680B586B000AF786092
S3150800AA10354B1B68354AA2FB03235B0A642202FBFB
S3150800AA2003F33B61FEF73CFC78617B681B685A6858
S3150800AA307B681B6822F020025A603B69002B06D10E
S3150800AA407B685B6D43F020027B685A6509E03B69C9
S3150800AA50013B3B617B681B689B6803F00203002B84
S3150800AA60EBD07A6964217868FFF78CFF0346002BE0
S3150800AA7005D07B685B6D43F020027B685A657B686E
S3150800AA809B68002B0AD10023FB607B681B68DB6888
S3150800AA90FB607B681B689B68FB60FB687B685B6D7B
S3150800AAA0002B15D17B6893F85130DBB2042B07D104
S3150800AAB07B68012283F851207868FFF70FFE0EE0C5
S3150800AAC07B68012283F851207868FDF751FF06E07C
S3150800AAD07B68012283F851207868FFF709FE00BFDA
S3150800AAE01837BD4680BD00BF00000020F119760565
S3150800AAF080B582B000AF78607B68002B01D1012356
S3150800AB001DE07B6893F83D30DBB2002B06D17B68ED
S3150800AB10002283F83C207868FEF73CFA7B6802221C
S3150800AB2083F83D207B681A687B680433194610460B
S3150800AB3000F040FA7B68012283F83D20002318467E
S3150800AB400837BD4680BD80B485B000AF78607B68A5
S3150800AB501B68DA687B681B6842F00102DA607B686A
S3150800AB601B689B6803F00703FB60FB68062B07D08E
S3150800AB707B681B681A687B681B6842F001021A60CA
S3150800AB80002318461437BD465DF8047B704780B429
S3150800AB9083B000AF78607B681B68DA687B681B68DF
S3150800ABA022F00102DA607B681B681A6A41F2111307
S3150800ABB01340002B0FD17B681B681A6A40F2444386
S3150800ABC01340002B07D17B681B681A687B681B68D3
S3150800ABD022F001021A60002318460C37BD465DF8BC
S3150800ABE0047B704780B582B000AF78607B681B68CD
S3150800ABF01B6903F00203022B22D17B681B68DB6802
S3150800AC0003F00203022B1BD17B681B686FF002025C
S3150800AC101A617B6801221A777B681B689B6903F0B7
S3150800AC200303002B03D0786800F0A5F905E07868DF
S3150800AC3000F097F9786800F0A8F97B6800221A777F
S3150800AC407B681B681B6903F00403042B22D17B680D
S3150800AC501B68DB6803F00403042B1BD17B681B68A5
S3150800AC606FF004021A617B6802221A777B681B68F8
S3150800AC709B6903F44073002B03D0786800F07BF9D6
S3150800AC8005E0786800F06DF9786800F07EF97B6871
S3150800AC9000221A777B681B681B6903F00803082BD8
S3150800ACA022D17B681B68DB6803F00803082B1BD1DD
S3150800ACB07B681B686FF008021A617B6804221A77A2
S3150800ACC07B681B68DB6903F00303002B03D07868F5
S3150800ACD000F051F905E0786800F043F9786800F06B
S3150800ACE054F97B6800221A777B681B681B6903F096
S3150800ACF01003102B22D17B681B68DB6803F0100356
S3150800AD00102B1BD17B681B686FF010021A617B68D9
S3150800AD1008221A777B681B68DB6903F44073002BEB
S3150800AD2003D0786800F027F905E0786800F019F98B
S3150800AD30786800F02AF97B6800221A777B681B6816
S3150800AD401B6903F00103012B0ED17B681B68DB68C6
S3150800AD5003F00103012B07D17B681B686FF0010222
S3150800AD601A617868FEF756F87B681B681B6903F05A
S3150800AD708003802B0ED17B681B68DB6803F0800399
S3150800AD80802B07D17B681B686FF080021A61786890
S3150800AD9000F0A2FA7B681B681B6903F04003402B8E
S3150800ADA00ED17B681B68DB6803F04003402B07D194
S3150800ADB07B681B686FF040021A61786800F0EFF84C
S3150800ADC07B681B681B6903F02003202B0ED17B6868
S3150800ADD01B68DB6803F02003202B07D17B681B6800
S3150800ADE06FF020021A61786800F06CFA00BF083725
S3150800ADF0BD4680BD80B584B000AF786039607B6899
S3150800AE0093F83C30012B01D10223A6E07B6801228E
S3150800AE1083F83C207B68022283F83D207B681B6808
S3150800AE209B68FB60FB6823F07703FB60FB6823F4F1
S3150800AE307F43FB607B681B68FA689A603B681B68FF
S3150800AE40402B67D0402B0BD8102B73D0102B02D871
S3150800AE50002B6FD078E0202B6CD0302B6AD073E0B3
S3150800AE60702B0DD0702B04D8502B33D0602B41D0CB
S3150800AE706AE0B3F5805F66D0B3F5005F17D063E08C
S3150800AE807B6818683B6899683B685A683B68DB6862
S3150800AE9000F08AF97B681B689B68FB60FB6843F0D7
S3150800AEA07703FB607B681B68FA689A604CE07B68EE
S3150800AEB018683B6899683B685A683B68DB6800F025
S3150800AEC073F97B681B689A687B681B6842F4804242
S3150800AED09A6039E07B6818683B6859683B68DB68A4
S3150800AEE01A4600F0E7F87B681B685021184600F000
S3150800AEF040F929E07B6818683B6859683B68DB6855
S3150800AF001A4600F006F97B681B686021184600F0AF
S3150800AF1030F919E07B6818683B6859683B68DB6854
S3150800AF201A4600F0C7F87B681B684021184600F0EF
S3150800AF3020F909E07B681A683B681B6819461046C1
S3150800AF4000F017F900E000BF7B68012283F83D2076
S3150800AF507B68002283F83C20002318461037BD463C
S3150800AF6080BD80B483B000AF786000BF0C37BD46A3
S3150800AF705DF8047B704780B483B000AF786000BF8B
S3150800AF800C37BD465DF8047B704780B483B000AFCC
S3150800AF90786000BF0C37BD465DF8047B704780B407
S3150800AFA083B000AF786000BF0C37BD465DF8047B00
S3150800AFB07047000080B485B000AF786039607B6860
S3150800AFC01B68FB607B68344A93420FD07B68B3F1F9
S3150800AFD0804F0BD07B68314A934207D07B68304A52
S3150800AFE0934203D07B682F4A934208D1FB6823F02B
S3150800AFF07003FB603B685B68FA681343FB607B6819
S3150800B000254A93421BD07B68B3F1804F17D07B68E3
S3150800B010224A934213D07B68214A93420FD07B6819
S3150800B020204A93420BD07B681F4A934207D07B681D
S3150800B0301E4A934203D07B681D4A934208D1FB6897
S3150800B04023F44073FB603B68DB68FA681343FB60D4
S3150800B050FB6823F080023B685B691343FB607B68EF
S3150800B060FA681A603B689A687B68DA623B681A680D
S3150800B0707B689A627B68084A934203D13B681A69DF
S3150800B0807B681A637B6801225A6100BF1437BD4684
S3150800B0905DF8047B704700BF0000014000040040D3
S3150800B0A000080040000C00400040014000440140F8
S3150800B0B00048014080B487B000AFF860B9607A6094
S3150800B0C0FB681B6A7B61FB681B6A23F00102FB684D
S3150800B0D01A62FB689B693B613B6923F0F0033B619D
S3150800B0E07B681B013A6913433B617B6923F00A03BA
S3150800B0F07B617A69BB6813437B61FB683A699A612D
S3150800B100FB687A691A6200BF1C37BD465DF8047B86
S3150800B110704780B487B000AFF860B9607A60FB68A2
S3150800B1201B6A23F01002FB681A62FB689B697B6145
S3150800B130FB681B6A3B617B6923F470437B617B6810
S3150800B1401B037A6913437B613B6923F0A0033B61C8
S3150800B150BB681B013A6913433B61FB687A699A61CC
S3150800B160FB683A691A6200BF1C37BD465DF8047B66
S3150800B170704780B485B000AF786039607B689B689B
S3150800B180FB60FB6823F07003FB603A68FB681343B7
S3150800B19043F00703FB607B68FA689A6000BF1437C0
S3150800B1A0BD465DF8047B704780B487B000AFF86091
S3150800B1B0B9607A603B60FB689B687B617B6923F4B6
S3150800B1C07F437B613B681A027B681A43BB6813435B
S3150800B1D07A6913437B61FB687A699A6000BF1C37FA
S3150800B1E0BD465DF8047B704780B485B000AF7860D3
S3150800B1F039607B6893F83C30012B01D1022350E07B
S3150800B2007B68012283F83C207B68022283F83D2074
S3150800B2107B681B685B68FB607B681B689B68BB6018
S3150800B220FB6823F07003FB603B681B68FA681343EE
S3150800B230FB607B681B68FA685A607B681B681C4A57
S3150800B240934218D07B681B68B3F1804F13D07B6894
S3150800B2501B68184A93420ED07B681B68164A9342AD
S3150800B26009D07B681B68154A934204D07B681B6823
S3150800B270134A93420CD1BB6823F08003BB603B683A
S3150800B2805B68BA681343BB607B681B68BA689A60D8
S3150800B2907B68012283F83D207B68002283F83C20E6
S3150800B2A0002318461437BD465DF8047B704700BF77
S3150800B2B0000001400004004000080040000C004067
S3150800B2C00040014080B483B000AF786000BF0C37FF
S3150800B2D0BD465DF8047B704780B483B000AF7860E4
S3150800B2E000BF0C37BD465DF8047B704780B582B059
S3150800B2F000AF78607B68002B01D101233FE07B68B3
S3150800B30093F83930DBB2002B06D17B68002283F82C
S3150800B31038207868FDF764FE7B68242283F8392094
S3150800B3207B681B68DA687B681B6822F40052DA605F
S3150800B330786800F00DFB7B681B681A697B681B68D8
S3150800B34022F490421A617B681B685A697B681B68FD
S3150800B35022F02A025A617B681B68DA687B681B68D8
S3150800B36042F40052DA607B680022DA637B682022A6
S3150800B37083F839207B68202283F83A200023184670
S3150800B3800837BD4680BD80B485B000AFF860B960A7
S3150800B3901346FB80FB6893F83930DBB2202B30D19B
S3150800B3A0BB68002B02D0FB88002B01D1012329E0C2
S3150800B3B0FB6893F83830012B01D1022322E0FB68A1
S3150800B3C0012283F83820FB68BA681A62FB68FA8893
S3150800B3D09A84FB68FA88DA84FB680022DA63FB68D9
S3150800B3E0212283F83920FB68002283F83820FB687D
S3150800B3F01B68DA68FB681B6842F08002DA60002383
S3150800B40000E0022318461437BD465DF8047B7047F2
S3150800B41080B485B000AFF860B9601346FB80FB685E
S3150800B42093F83A30DBB2202B40D1BB68002B02D010
S3150800B430FB88002B01D1012339E0FB6893F83830EB
S3150800B440012B01D1022332E0FB68012283F8382060
S3150800B450FB68BA689A62FB68FA889A85FB68FA8874
S3150800B460DA85FB680022DA63FB68222283F83A2031
S3150800B470FB68002283F83820FB681B68DA68FB68DB
S3150800B4801B6842F48072DA60FB681B685A69FB68BD
S3150800B4901B6842F001025A61FB681B68DA68FB68A0
S3150800B4A01B6842F02002DA60002300E002231846F7
S3150800B4B01437BD465DF8047B7047000080B588B038
S3150800B4C000AF78607B681B681B68FB617B681B683C
S3150800B4D0DB68BB617B681B685B697B6100233B613A
S3150800B4E00023FB60FB6903F00F033B613B69002BFC
S3150800B4F00DD1FB6903F02003002B08D0BB6903F0CC
S3150800B5002003002B03D0786800F0A0F9D1E03B694E
S3150800B510002B00F0B0807B6903F00103002B05D1F6
S3150800B520BB6903F49073002B00F0A580FB6903F058
S3150800B5300103002B0AD0BB6903F48073002B05D0E6
S3150800B5407B68DB6B43F001027B68DA63FB6903F017
S3150800B5500403002B0AD07B6903F00103002B05D0F6
S3150800B5607B68DB6B43F002027B68DA63FB6903F0F6
S3150800B5700203002B0AD07B6903F00103002B05D0D8
S3150800B5807B68DB6B43F004027B68DA63FB6903F0D4
S3150800B5900803002B0FD0BB6903F02003002B04D14E
S3150800B5A07B6903F00103002B05D07B68DB6B43F056
S3150800B5B008027B68DA637B68DB6B002B78D0FB6953
S3150800B5C003F02003002B07D0BB6903F02003002BF0
S3150800B5D002D0786800F03AF97B681B685B6903F06B
S3150800B5E04003402B0CBF01230023DBB2FB607B68C2
S3150800B5F0DB6B03F00803002B02D1FB68002B31D06C
S3150800B600786800F083F87B681B685B6903F0400381
S3150800B610402B23D17B681B685A697B681B6822F01C
S3150800B62040025A617B685B6B002B13D07B685B6BAF
S3150800B630214A1A657B685B6B1846FDF71FFF0346B0
S3150800B640002B16D07B685B6B1B6D7A68526B1046B5
S3150800B65098470EE0786800F031F80AE0786800F05C
S3150800B6602DF806E0786800F029F87B680022DA638E
S3150800B6701EE000BF1CE0FB6903F08003002B08D026
S3150800B680BB6903F08003002B03D0786800F070F8DC
S3150800B6900FE0FB6903F04003002B0AD0BB6903F0F7
S3150800B6A04003002B05D0786800F0B8F800BF00E02A
S3150800B6B000BF2037BD4680BD49B7000880B483B0B7
S3150800B6C000AF786000BF0C37BD465DF8047B704755
S3150800B6D080B485B000AF78600023FB600023BB60B0
S3150800B6E07B6893F83930DBB2FB607B6893F83A30B5
S3150800B6F0DBB2BB60FB68DAB2BB68DBB21343DBB212
S3150800B70018461437BD465DF8047B704780B483B08D
S3150800B71000AF78607B681B68DA687B681B6822F470
S3150800B7209072DA607B681B685A697B681B6822F02E
S3150800B73001025A617B68202283F83A2000BF0C3741
S3150800B740BD465DF8047B704780B584B000AF78606D
S3150800B7507B689B6BFB60FB680022DA85FB6800222E
S3150800B760DA84F868FFF7AAFF00BF1037BD4680BD28
S3150800B77080B485B000AF78607B6893F83930DBB267
S3150800B780212B44D17B689B68B3F5805F1AD17B680F
S3150800B7901B6AFB60FB681B881A467B681B68C2F33A
S3150800B7A008025A607B681B69002B05D17B681B6AF7
S3150800B7B09A1C7B681A620EE07B681B6A5A1C7B68B7
S3150800B7C01A6208E07B681B6A591C7A6811621A7843
S3150800B7D07B681B685A607B68DB8C9BB2013B9BB21B
S3150800B7E07A681946D184002B0FD17B681B68DA6802
S3150800B7F07B681B6822F08002DA607B681B68DA685F
S3150800B8007B681B6842F04002DA60002300E00223EE
S3150800B81018461437BD465DF8047B704780B582B07C
S3150800B82000AF78607B681B68DA687B681B6822F063
S3150800B8304002DA607B68202283F83920786805F0B0
S3150800B84027FD002318460837BD4680BD80B584B05D
S3150800B85000AF78607B6893F83A30DBB2222B71D15F
S3150800B8607B689B68B3F5805F23D17B689B6AFB6026
S3150800B8707B681B69002B0ED17B681B685B689BB2D3
S3150800B880C3F308039AB2FB681A807B689B6A9A1C02
S3150800B8907B689A6229E07B681B685B689BB2DBB2AF
S3150800B8A09AB2FB681A807B689B6A5A1C7B689A6204
S3150800B8B01BE07B681B69002B0AD17B681B685868EC
S3150800B8C07B689B6A591C7A689162C2B21A700CE04E
S3150800B8D07B681B685B68DAB27B689B6A581C796868
S3150800B8E0886202F07F02D2B21A707B68DB8D9BB247
S3150800B8F0013B9BB27A681946D185002B20D17B681B
S3150800B9001B68DA687B681B6822F02002DA607B68AD
S3150800B9101B68DA687B681B6822F48072DA607B68C9
S3150800B9201B685A697B681B6822F001025A617B68AA
S3150800B930202283F83A20786804F0C0FF002302E04A
S3150800B940002300E0022318461037BD4680BD0000DC
S3150800B9502DE9F04F85B000AF78607B681B681B69DE
S3150800B96023F440517B68DA687B681B680A431A61CE
S3150800B9707B689A687B681B691A437B685B691A430C
S3150800B9807B68DB691343FB607B681B68DB6823F411
S3150800B990164323F00C037A681268F9680B43D360E0
S3150800B9A07B681B685B6923F440717B689A697B68CE
S3150800B9B01B680A435A617B68DB69B3F5004F40F0A0
S3150800B9C08B817B681B68C14A934205D07B681B68DC
S3150800B9D0BF4A934240F0BD80FEF774FBB860BB686F
S3150800B9E01D464FF00006A846B14618EB080349EB7A
S3150800B9F009049846A14618EB050849EB06094FF0D5
S3150800BA0000014FF000024FEAC90242EA58724FEAB3
S3150800BA10C8018846914618EB050049EB06017B6884
S3150800BA205B681D464FF000066B1946EB06041A467E
S3150800BA302346FCF7D5FB03460C461A46A54BA3FB43
S3150800BA4002235B094FEA0318BB681D464FF0000640
S3150800BA50A946B24619EB09034AEB0A049946A246D7
S3150800BA6019EB05094AEB060A4FF000014FF00002F0
S3150800BA704FEACA0242EA59724FEAC9018946924612
S3150800BA8019EB05004AEB06017B685B681D464FF01B
S3150800BA9000066B1946EB06041A462346FCF7A0FB7C
S3150800BAA003460C461A468B4BA3FB02135B0964211B
S3150800BAB001FB03F3D31ADB003233864AA2FB0323C6
S3150800BAC05B095B0003F4F8739844BB681D464FF0A6
S3150800BAD00006A946B24619EB09034AEB0A04994639
S3150800BAE0A24619EB05094AEB060A4FF000014FF08A
S3150800BAF000024FEACA0242EA59724FEAC901894668
S3150800BB00924619EB05004AEB06017B685B681D4601
S3150800BB104FF000066B1946EB06041A462346FCF757
S3150800BB205FFB03460C461A466A4BA3FB02135B09E6
S3150800BB30642101FB03F3D31ADB003233654AA2FB07
S3150800BB4003235B0903F007027B681B6842449A607B
S3150800BB506FE2FEF7A3FAB860BB681D464FF0000611
S3150800BB60A846B14618EB080349EB09049846A146CE
S3150800BB7018EB050849EB06094FF000014FF00002E3
S3150800BB804FEAC90242EA58724FEAC8018846914606
S3150800BB9018EB050049EB06017B685B681D464FF00C
S3150800BBA000066B1946EB06041A462346FCF718FBF3
S3150800BBB003460C461A46474BA3FB02235B094FEA8A
S3150800BBC00318BB681D464FF00006A946B24619EB96
S3150800BBD009034AEB0A049946A24619EB05094AEBFA
S3150800BBE0060A4FF000014FF000024FEACA0242EA85
S3150800BBF059724FEAC9018946924619EB05004AEB84
S3150800BC0006017B685B681D464FF000066B1946EB1C
S3150800BC1006041A462346FCF7E3FA03460C461A4678
S3150800BC202C4BA3FB02135B09642101FB03F3D31A14
S3150800BC30DB003233274AA2FB03235B095B0003F4CC
S3150800BC40F8739844BB681D464FF00006A946B246ED
S3150800BC5019EB09034AEB0A049946A24619EB0509AA
S3150800BC604AEB060A4FF000014FF000024FEACA02FB
S3150800BC7042EA59724FEAC9018946924619EB05000C
S3150800BC804AEB06017B685B681D464FF000066B1998
S3150800BC9046EB06041A462346FCF7A2FA03460C4668
S3150800BCA01A460C4BA3FB02135B09642101FB03F341
S3150800BCB0D31ADB003233074AA2FB03235B0903F0DE
S3150800BCC007027B681B6842449A60B2E10010014093
S3150800BCD0001401401F85EB517B681B68D74A9342C5
S3150800BCE005D07B681B68D64A934240F0D180FEF7A0
S3150800BCF0E9F9B860BB689A464FF0000BD046D946BA
S3150800BD0018EB080349EB09049846A14618EB0A08FC
S3150800BD1049EB0B094FF000014FF000024FEAC90248
S3150800BD2042EA58724FEAC801884691461AEB080556
S3150800BD304BEB09067B685B6819464FF000024FF02B
S3150800BD4000034FF00004940044EA91748B001A46ED
S3150800BD50234628463146FCF743FA03460C461A465C
S3150800BD60B84BA3FB02235B094FEA0318BB689B4643
S3150800BD704FF0000CD946E24619EB09034AEB0A04D0
S3150800BD809946A24619EB0B094AEB0C0A4FF000013B
S3150800BD904FF000024FEACA0242EA59724FEAC90155
S3150800BDA0894692461BEB09054CEB0A067B685B68DD
S3150800BDB019464FF000024FF000034FF000049400BC
S3150800BDC044EA91748B001A46234628463146FCF706
S3150800BDD007FA03460C461A469A4BA3FB02135B095D
S3150800BDE0642101FB03F3D31A1B013233954AA2FBE4
S3150800BDF003235B0903F0F0039844BB689B464FF0A6
S3150800BE00000CD946E24619EB09034AEB0A0499469F
S3150800BE10A24619EB0B094AEB0C0A4FF000014FF04A
S3150800BE2000024FEACA0242EA59724FEAC901894634
S3150800BE3092461BEB09054CEB0A067B685B681946BC
S3150800BE404FF000024FF000034FF00004940044EA5C
S3150800BE5091748B001A46234628463146FCF7C0F9EA
S3150800BE6003460C461A46774BA3FB02135B0964216B
S3150800BE7001FB03F3D31A1B013233724AA2FB0323D5
S3150800BE805B0903F00F027B681B6842449A60D0E0A6
S3150800BE90FEF704F9B860BB689A464FF0000BD04627
S3150800BEA0D94618EB080349EB09049846A14618EB4E
S3150800BEB00A0849EB0B094FF000014FF000024FEA60
S3150800BEC0C90242EA58724FEAC801884691461AEBF7
S3150800BED008054BEB09067B685B6819464FF00002BC
S3150800BEE04FF000034FF00004940044EA91748B006D
S3150800BEF01A46234628463146FCF772F903460C468D
S3150800BF001A46504BA3FB02235B094FEA0318BB688A
S3150800BF109B464FF0000CD946E24619EB09034AEB5B
S3150800BF200A049946A24619EB0B094AEB0C0A4FF08C
S3150800BF3000014FF000024FEACA0242EA59724FEA7C
S3150800BF40C901894692461BEB09054CEB0A067B6834
S3150800BF505B6819464FF000024FF000034FF00004EB
S3150800BF60940044EA91748B001A46234628463146C3
S3150800BF70FCF736F903460C461A46324BA3FB021366
S3150800BF805B09642101FB03F3D31A1B0132332D4AE3
S3150800BF90A2FB03235B0903F0F0039844BB689B46A6
S3150800BFA04FF0000CD946E24619EB09034AEB0A049E
S3150800BFB09946A24619EB0B094AEB0C0A4FF0000109
S3150800BFC04FF000024FEACA0242EA59724FEAC90123
S3150800BFD0894692461BEB09054CEB0A067B685B68AB
S3150800BFE019464FF000024FF000034FF0000494008A
S3150800BFF044EA91748B001A46234628463146FCF7D4
S3150800C000EFF803460C461A460E4BA3FB02135B09D0
S3150800C010642101FB03F3D31A1B013233094AA2FB3D
S3150800C02003235B0903F00F027B681B6842449A608E
S3150800C030FFE700BF1437BD46BDE8F08F001001408A
S3150800C040001401401F85EB5180B400AF00BFBD4608
S3150800C0505DF8047B7047000080B485B000AFEFF34D
S3150800C0600583BB60BB68002B0FD1EFF310837B60A1
S3150800C0707B68002B05D1EFF311833B603B68002BEF
S3150800C08007D00E4B1B68022B03D16FF00503FB602C
S3150800C0900CE00A4B1B68002B05D1084B01221A60DD
S3150800C0A00023FB6002E04FF0FF33FB60FB68184695
S3150800C0B01437BD465DF8047B704700BF3400002086
S3150800C0C080B584B000AFEFF30583BB60BB68002B77
S3150800C0D00FD1EFF310837B607B68002B05D1EFF35C
S3150800C0E011833B603B68002B07D00F4B1B68022B64
S3150800C0F003D16FF00503FB6010E00B4B1B68012BA7
S3150800C10009D1FFF7A1FF084B02221A6001F062FE6F
S3150800C1100023FB6002E04FF0FF33FB60FB68184624
S3150800C1201037BD4680BD00BF3400002080B590B0F2
S3150800C13004AFF860B9607A6000233B61EFF30583CA
S3150800C140FB61FB69002B40F08F80EFF31083BB6126
S3150800C150BB69002B05D1EFF311837B617B69002B4B
S3150800C16003D0444B1B68022B7ED0FB68002B7BD088
S3150800C1708023BB6218237B620023FB624FF0FF33E8
S3150800C1803B627B68002B45D07B681B68002B02D07E
S3150800C1907B681B68FB627B689B69002B02D07B6807
S3150800C1A09B697B627B6A002B08D07B6A382B05D893
S3150800C1B07B685B6803F00103002B01D0002354E081
S3150800C1C07B685B69002B03D07B685B699B08BB6255
S3150800C1D07B689B68002B0ED07B68DB685B2B0AD9D3
S3150800C1E07B681B69002B06D07B685B69002B02D035
S3150800C1F001233B6210E07B689B68002B0CD17B68AF
S3150800C200DB68002B08D17B681B69002B04D100234F
S3150800C2103B6201E000233B623B6A012B10D17B683D
S3150800C2201B697A689268029201937B6A0093BB68DD
S3150800C230BA6AF96AF86801F0FBFB03463B6113E04A
S3150800C2403B6A002B10D1BB6A9AB207F1100301931F
S3150800C2507B6A0093BB68F96AF86801F043FC0346F9
S3150800C260012B01D000233B613B6918463037BD4698
S3150800C27080BD00BF3400002080B586B000AF78606E
S3150800C280EFF305833B613B69002B0FD1EFF3108376
S3150800C290FB60FB68002B05D1EFF31183BB60BB681D
S3150800C2A0002B07D00A4B1B68022B03D16FF005033E
S3150800C2B07B6107E000237B617B68002B02D07868EE
S3150800C2C001F054FD7B6918461837BD4680BD00BF8E
S3150800C2D03400002080B584B000AF7860786803F039
S3150800C2E04DF9F860FB68002B05D0FB681B68FA68F7
S3150800C2F052681046984700BF1037BD4680BD0000FB
S3150800C30080B58EB002AFF8607A603B600B46FB7270
S3150800C3100023BB62EFF30583BB61BB69002B6AD1BF
S3150800C320EFF310837B617B69002B05D1EFF3118353
S3150800C3303B613B69002B03D0314B1B68022B5AD05B
S3150800C340FB68002B57D0082003F07AFBF861FB69DD
S3150800C350002B50D0FB69FA681A60FB697A685A6044
S3150800C360FB7A002B02D100237B6201E001237B626A
S3150800C3704FF0FF333B620023FB623B68002B1CD067
S3150800C3803B681B68002B02D03B681B68FB623B6856
S3150800C3909B68002B06D03B68DB682B2B02D9012350
S3150800C3A03B620CE03B689B68002B08D13B68DB6866
S3150800C3B0002B04D100233B6201E000233B623B6A69
S3150800C3C0012B0CD13B689B6801930E4B0093FB69CC
S3150800C3D07A6A0121F86A02F05CFDB8620BE03B6AF2
S3150800C3E0002B08D1074B0093FB697A6A0121F86A8A
S3150800C3F002F02EFDB862BB6A18463037BD4680BDCE
S3150800C40034000020D5C2000880B58AB002AF786033
S3150800C41039607B68BB61EFF305837B617B69002B21
S3150800C4200FD1EFF310833B613B69002B05D1EFF386
S3150800C4301183FB60FB68002B07D0124B1B68022B8D
S3150800C44003D16FF00503FB6117E0BB69002B03D12D
S3150800C4506FF00303FB6110E00023009300233A68A2
S3150800C4600421B86902F08CFD0346012B02D1002392
S3150800C470FB6102E06FF00203FB61FB691846203797
S3150800C480BD4680BD3400002080B58CB002AFF86090
S3150800C490B9607A6000237B62EFF30583BB61BB69F1
S3150800C4A0002B40F08780EFF310837B617B69002BBC
S3150800C4B005D1EFF311833B613B69002B03D0404B59
S3150800C4C01B68022B76D0FB68002B73D0BA68FB6812
S3150800C4D09A426FD84FF0FF333B627B68002B15D02A
S3150800C4E07B689B68002B06D07B68DB684F2B02D9DC
S3150800C4F001233B620CE07B689B68002B08D17B68B4
S3150800C500DB68002B04D100233B6201E000233B6279
S3150800C5103B6AB3F1FF3F4DD0FB68012B29D13B6A3B
S3150800C520012B0BD17B689A680323009313460022DC
S3150800C5300021012000F0DAFA786205E003220021E2
S3150800C540012000F046FB78627B6A002B22D0BB688C
S3150800C550002B1FD0002300220021786A00F002FC7D
S3150800C5600346012B16D0786A01F092F800237B6205
S3150800C57010E03B6A012B08D17B689B681A46B968AC
S3150800C580F86800F088FB786204E0B968F86800F09B
S3150800C590B7FB78627B6A002B0CD07B68002B03D034
S3150800C5A07B681B68FB6101E00023FB61F969786A17
S3150800C5B001F0B8F97B6A18462837BD4680BD00BF2A
S3150800C5C03400002080B588B000AF786039607B6899
S3150800C5D0BB610023FB61BB69002B03D16FF003032A
S3150800C5E0FB614BE0EFF305837B617B69002B0FD181
S3150800C5F0EFF310833B613B69002B05D1EFF3118301
S3150800C600FB60FB68002B26D01F4B1B68022B22D130
S3150800C6103B68002B03D06FF00303FB612DE000237A
S3150800C620BB6007F108031A460021B86900F096FFB7
S3150800C6300346012B03D06FF00203FB611DE0BB68C4
S3150800C640002B1AD0114B4FF080521A60BFF34F8F50
S3150800C650BFF36F8F11E03968B86900F077FE0346BB
S3150800C660012B0BD03B68002B03D06FF00103FB6155
S3150800C67004E06FF00203FB6100E000BFFB691846A7
S3150800C6802037BD4680BD00BF3400002004ED00E021
S3150800C69080B588B000AF78607B68BB610023FB611A
S3150800C6A0BB69002B03D16FF00303FB613EE0EFF398
S3150800C6B005837B617B69002B0FD1EFF310833B6108
S3150800C6C03B69002B05D1EFF31183FB60FB68002B58
S3150800C6D01ED0194B1B68022B1AD10023BB6007F129
S3150800C6E008031946B86900F0CBFC0346012B03D0B2
S3150800C6F06FF00203FB6118E0BB68002B15D00F4BE7
S3150800C7004FF080521A60BFF34F8FBFF36F8F0CE064
S3150800C710002300220021B86900F024FB0346012B00
S3150800C72004D06FF00203FB6100E000BFFB69184606
S3150800C7302037BD4680BD00BF3400002004ED00E070
S3150800C74080B58CB002AFF860B9607A6000237B626E
S3150800C750EFF30583BB61BB69002B70D1EFF3108340
S3150800C7607B617B69002B05D1EFF311833B613B6944
S3150800C770002B03D0344B1B68022B60D0FB68002BC0
S3150800C7805DD0BB68002B5AD04FF0FF333B627B6805
S3150800C790002B29D07B689B68002B12D07B68DB684E
S3150800C7A04F2B0ED97B681B69002B0AD07B685A6908
S3150800C7B0FB68B96801FB03F39A4202D301233B6283
S3150800C7C014E07B689B68002B10D17B68DB68002B24
S3150800C7D00CD17B681B69002B08D17B685B69002B31
S3150800C7E004D100233B6201E000233B623B6A012B34
S3150800C7F00CD17B681A697B689968002300930B46FD
S3150800C800B968F86800F072F9786208E03B6A002BAC
S3150800C81005D10022B968F86800F0DBF978627B6A0E
S3150800C820002B0CD07B68002B03D07B681B68FB6150
S3150800C83001E00023FB61F969786A01F073F87B6A05
S3150800C84018462837BD4680BD3400002080B485B020
S3150800C85000AFF860B9607A60FB68074A1A60BB687F
S3150800C860064A1A607B6880221A6000BF1437BD46E4
S3150800C8705DF8047B704700BF380000209400002054
S3150800C88080B485B000AFF860B9607A60FB68074A83
S3150800C8901A60BB68064A1A607B684FF480721A6091
S3150800C8A000BF1437BD465DF8047B7047940200202C
S3150800C8B0F002002080B483B000AF78607B6803F193
S3150800C8C008027B685A607B684FF0FF329A607B6883
S3150800C8D003F108027B68DA607B6803F108027B686B
S3150800C8E01A617B6800221A6000BF0C37BD465DF8E6
S3150800C8F0047B704780B483B000AF78607B68002201
S3150800C9001A6100BF0C37BD465DF8047B704780B4DA
S3150800C91085B000AF786039607B685B68FB603B6810
S3150800C920FA685A60FB689A683B689A60FB689B6875
S3150800C9303A685A60FB683A689A603B687A681A618E
S3150800C9407B681B685A1C7B681A6000BF1437BD4693
S3150800C9505DF8047B704780B485B000AF78603960B5
S3150800C9603B681B68BB60BB68B3F1FF3F03D17B68BC
S3150800C9701B69FB600CE07B680833FB6002E0FB6820
S3150800C9805B68FB60FB685B681B68BA689A42F6D20C
S3150800C990FB685A683B685A603B685B683A689A6005
S3150800C9A03B68FA689A60FB683A685A603B687A6836
S3150800C9B01A617B681B685A1C7B681A6000BF1437AB
S3150800C9C0BD465DF8047B704780B485B000AF7860DB
S3150800C9D07B681B69FB607B685B687A6892689A600B
S3150800C9E07B689B687A6852685A60FB685B687A68F5
S3150800C9F09A4203D17B689A68FB685A607B68002272
S3150800CA001A61FB681B685A1EFB681A60FB681B687C
S3150800CA1018461437BD465DF8047B704780B584B068
S3150800CA2000AF786039607B68FB60FB68002B09D132
S3150800CA304FF0500383F31188BFF36F8FBFF34F8F07
S3150800CA40BB60FEE702F0E2FEFB681A68FB68DB6B78
S3150800CA50F968096C01FB03F31A44FB689A60FB68E2
S3150800CA6000229A63FB681A68FB685A60FB681A68B2
S3150800CA70FB68DB6B013BF968096C01FB03F31A449D
S3150800CA80FB68DA60FB68FF2283F84420FB68FF2214
S3150800CA9083F845203B68002B14D1FB681B69002BE3
S3150800CAA01AD0FB681033184601F026FC0346002B03
S3150800CAB012D00D4B4FF080521A60BFF34F8FBFF361
S3150800CAC06F8F09E0FB6810331846FFF7F3FEFB6823
S3150800CAD024331846FFF7EEFE02F0C6FE0123184679
S3150800CAE01037BD4680BD00BF04ED00E080B58EB0AE
S3150800CAF002AFF860B9607A603B60FB68002B09D129
S3150800CB004FF0500383F31188BFF36F8FBFF34F8F36
S3150800CB10BB62FEE73B68002B09D14FF0500383F355
S3150800CB201188BFF36F8FBFF34F8F7B62FEE77B6879
S3150800CB30002B02D0BB68002B01D0012300E00023A4
S3150800CB40002B09D14FF0500383F31188BFF36F8F81
S3150800CB50BFF34F8F3B62FEE77B68002B02D1BB68B1
S3150800CB60002B01D1012300E00023002B09D14FF04F
S3150800CB70500383F31188BFF36F8FBFF34F8FFB61A9
S3150800CB80FEE750237B617B69502B09D04FF0500399
S3150800CB9083F31188BFF36F8FBFF34F8FBB61FEE737
S3150800CBA07B693B68FB62FB6A002B0DD0FB6A01229E
S3150800CBB083F8462097F83820FB6A009313467A686C
S3150800CBC0B968F86800F044F8FB6A18463037BD467D
S3150800CBD080BD80B58AB002AFF860B9601346FB71B4
S3150800CBE0FB68002B09D14FF0500383F31188BFF37C
S3150800CBF06F8FBFF34F8F3B61FEE7BB68002B02D1F7
S3150800CC000023FB6104E0FB68BA6802FB03F3FB61DF
S3150800CC10FB695033184602F013FFB861BB69002B55
S3150800CC2011D0BB697B617B6950337B61BB6900228C
S3150800CC3083F84620FA79BB69009313467A69B9687E
S3150800CC40F86800F005F8BB6918462037BD4680BD70
S3150800CC5080B584B000AFF860B9607A60FB70BB68D5
S3150800CC60002B03D1BB69BA691A6002E0BB697A680E
S3150800CC701A60BB69FA68DA63BB69BA681A64012183
S3150800CC80B869FFF7CBFEBB69FA7883F84C2000BF7A
S3150800CC901037BD4680BD80B58AB002AFF860B9606E
S3150800CCA07A60FB68002B09D14FF0500383F3118893
S3150800CCB0BFF36F8FBFF34F8FBB61FEE7BA68FB68A0
S3150800CCC09A4209D94FF0500383F31188BFF36F8F47
S3150800CCD0BFF34F8F7B61FEE7022300937B68002238
S3150800CCE00021F868FFF702FFF861FB69002B02D004
S3150800CCF0FB69BA689A63FB6918462037BD4680BD4A
S3150800CD0080B586B000AF786039607B68002B09D1A2
S3150800CD104FF0500383F31188BFF36F8FBFF34F8F24
S3150800CD203B61FEE73A687B689A4209D94FF050039F
S3150800CD3083F31188BFF36F8FBFF34F8FFB60FEE756
S3150800CD40022200217868FFF744FF78617B69002B8F
S3150800CD5002D07B693A689A637B6918461837BD46DC
S3150800CD6080BD000080B58EB000AFF860B9607A600B
S3150800CD703B6000237B63FB683B633B6B002B09D15D
S3150800CD804FF0500383F31188BFF36F8FBFF34F8FB4
S3150800CD90BB62FEE7BB68002B03D13B6B1B6C002B09
S3150800CDA001D1012300E00023002B09D14FF05003E5
S3150800CDB083F31188BFF36F8FBFF34F8F7B62FEE754
S3150800CDC03B68022B03D13B6BDB6B012B01D10123A3
S3150800CDD000E00023002B09D14FF0500383F311889C
S3150800CDE0BFF36F8FBFF34F8F3B62FEE701F03AFC4C
S3150800CDF00346002B02D17B68002B01D1012300E0FA
S3150800CE000023002B09D14FF0500383F31188BFF399
S3150800CE106F8FBFF34F8FFB61FEE702F0F7FC3B6BAA
S3150800CE209A6B3B6BDB6B9A4202D33B68022B29D188
S3150800CE303A68B968386B00F065FCF8623B6B5B6A68
S3150800CE40002B10D03B6B2433184601F055FA0346E5
S3150800CE50002B13D03F4B4FF080521A60BFF34F8F11
S3150800CE60BFF36F8F0AE0FB6A002B07D0394B4FF0F0
S3150800CE7080521A60BFF34F8FBFF36F8F02F0F4FC36
S3150800CE80012363E07B68002B03D102F0EDFC00234D
S3150800CE905CE07B6B002B06D107F11403184601F002
S3150800CEA08DFA01237B6302F0DFFC00F0F7FF02F046
S3150800CEB0ADFC3B6B93F844305BB2B3F1FF3F03D153
S3150800CEC03B6B002283F844203B6B93F845305BB2FA
S3150800CED0B3F1FF3F03D13B6B002283F8452002F0F4
S3150800CEE0C3FC3A1D07F114031146184601F07CFAF3
S3150800CEF00346002B24D1386B00F0FCFC0346002BBC
S3150800CF0018D03B6B10337A681146184601F0A6F91B
S3150800CF10386B00F087FC00F0CFFF0346002B7FF448
S3150800CF207CAF0C4B4FF080521A60BFF34F8FBFF3A4
S3150800CF306F8F72E7386B00F075FC00F0BDFF6CE789
S3150800CF40386B00F06FFC00F0B7FF0023184638373F
S3150800CF50BD4680BD04ED00E080B58EB000AFF86038
S3150800CF60B9607A603B60FB683B633B6B002B09D179
S3150800CF704FF0500383F31188BFF36F8FBFF34F8FC2
S3150800CF807B62FEE7BB68002B03D13B6B1B6C002B57
S3150800CF9001D1012300E00023002B09D14FF05003F3
S3150800CFA083F31188BFF36F8FBFF34F8F3B62FEE7A2
S3150800CFB03B68022B03D13B6BDB6B012B01D10123B1
S3150800CFC000E00023002B09D14FF0500383F31188AA
S3150800CFD0BFF36F8FBFF34F8FFB61FEE702F0F2FCE2
S3150800CFE0EFF311824FF0500383F31188BFF36F8F6D
S3150800CFF0BFF34F8FBA617B61BB69FB623B6B9A6B70
S3150800D0003B6BDB6B9A4202D33B68022B2CD13B6B02
S3150800D01093F8453087F82B303A68B968386B00F0D2
S3150800D02071FB97F92B30B3F1FF3F12D13B6B5B6A6B
S3150800D030002B16D03B6B2433184601F05DF90346E6
S3150800D040002B0ED07B68002B0BD07B6801221A6060
S3150800D05007E097F82B300133DBB25AB23B6B83F803
S3150800D060452001237B6301E000237B63FB6A3B6168
S3150800D0703B6983F311887B6B18463837BD4680BDFC
S3150800D08080B58EB000AF786039607B683B633B6BD8
S3150800D090002B09D14FF0500383F31188BFF36F8F2C
S3150800D0A0BFF34F8F3B62FEE73B6B1B6C002B09D02F
S3150800D0B04FF0500383F31188BFF36F8FBFF34F8F81
S3150800D0C0FB61FEE73B6B1B68002B03D13B6B9B6840
S3150800D0D0002B01D1012300E00023002B09D14FF0DA
S3150800D0E0500383F31188BFF36F8FBFF34F8FBB6174
S3150800D0F0FEE702F067FCEFF311824FF0500383F36B
S3150800D1001188BFF36F8FBFF34F8F7A613B617B69DD
S3150800D110FB623B6B9B6BBB623B6BDB6BBA6A9A42EF
S3150800D1202BD23B6B93F8453087F82730BB6A5A1CDD
S3150800D1303B6B9A6397F92730B3F1FF3F12D13B6BEC
S3150800D1405B6A002B16D03B6B2433184601F0D4F8E3
S3150800D1500346002B0ED03B68002B0BD03B68012200
S3150800D1601A6007E097F827300133DBB25AB23B6BF7
S3150800D17083F8452001237B6301E000237B63FB6A78
S3150800D180FB60FB6883F311887B6B18463837BD460E
S3150800D19080BD000080B58CB000AFF860B9607A60D9
S3150800D1A00023FB62FB68BB62BB6A002B09D14FF008
S3150800D1B0500383F31188BFF36F8FBFF34F8F3B6222
S3150800D1C0FEE7BB68002B03D1BB6A1B6C002B01D1A1
S3150800D1D0012300E00023002B09D14FF0500383F30D
S3150800D1E01188BFF36F8FBFF34F8FFB61FEE701F026
S3150800D1F039FA0346002B02D17B68002B01D10123A3
S3150800D20000E00023002B09D14FF0500383F3118867
S3150800D210BFF36F8FBFF34F8FBB61FEE702F0F6FADD
S3150800D220BB6A9B6B7B627B6A002B1FD0B968B86AA6
S3150800D23000F0D2FA7B6A5A1EBB6A9A63BB6A1B69FC
S3150800D240002B0FD0BB6A1033184601F055F8034679
S3150800D250002B07D03C4B4FF080521A60BFF34F8F1C
S3150800D260BFF36F8F02F000FB012369E07B68002B98
S3150800D27003D102F0F9FA002362E0FB6A002B06D11B
S3150800D28007F11003184601F099F80123FB6202F032
S3150800D290EBFA00F003FE02F0B9FABB6A93F84430E1
S3150800D2A05BB2B3F1FF3F03D1BB6A002283F8442087
S3150800D2B0BB6A93F845305BB2B3F1FF3F03D1BB6A53
S3150800D2C0002283F8452002F0CFFA3A1D07F1100331
S3150800D2D01146184601F088F80346002B23D1B86A90
S3150800D2E000F0F2FA0346002B17D0BB6A24337A689B
S3150800D2F01146184600F0B2FFB86A00F093FA00F03B
S3150800D300DBFD0346002B89D10F4B4FF080521A6084
S3150800D310BFF34F8FBFF36F8F80E7B86A00F082FACA
S3150800D32000F0CAFD7AE7B86A00F07CFA00F0C4FD9E
S3150800D330B86A00F0C9FA0346002B3FF46FAF002322
S3150800D34018463037BD4680BD04ED00E080B58EB086
S3150800D35000AF7860396000237B637B68FB6200233B
S3150800D3603B63FB6A002B09D14FF0500383F3118806
S3150800D370BFF36F8FBFF34F8F3B62FEE7FB6A1B6CF1
S3150800D380002B09D04FF0500383F31188BFF36F8F3A
S3150800D390BFF34F8FFB61FEE701F064F90346002BEC
S3150800D3A002D13B68002B01D1012300E00023002BAA
S3150800D3B009D14FF0500383F31188BFF36F8FBFF382
S3150800D3C04F8FBB61FEE702F021FAFB6A9B6BBB62DB
S3150800D3D0BB6A002B24D0BB6A5A1EFB6A9A63FB6A97
S3150800D3E01B68002B04D101F0AFFA0246FB6A9A606B
S3150800D3F0FB6A1B69002B0FD0FB6A1033184600F036
S3150800D4007BFF0346002B07D0534B4FF080521A6020
S3150800D410BFF34F8FBFF36F8F02F026FA012396E012
S3150800D4203B68002B10D13B6B002B09D04FF0500303
S3150800D43083F31188BFF36F8FBFF34F8F7B61FEE7CE
S3150800D44002F012FA002382E07B6B002B06D107F16B
S3150800D4500C03184600F0B2FF01237B6302F004FABE
S3150800D46000F01CFD02F0D2F9FB6A93F844305BB277
S3150800D470B3F1FF3F03D1FB6A002283F84420FB6A1D
S3150800D48093F845305BB2B3F1FF3F03D1FB6A002244
S3150800D49083F8452002F0E8F93A4607F10C031146ED
S3150800D4A0184600F0A1FF0346002B32D1F86A00F0B7
S3150800D4B00BFA0346002B26D0FB6A1B68002B09D102
S3150800D4C002F0A4F9FB6A9B68184601F0E9F838638C
S3150800D4D002F0CAF9FB6A24333A681146184600F086
S3150800D4E0BDFEF86A00F09EF900F0E6FC0346002B44
S3150800D4F07FF469AF184B4FF080521A60BFF34F8F15
